:020000040800F2
:10000000005000202D01000875010008750100084E
:100010007501000875010008750100080000000066
:100020000000000000000000000000007501000852
:100030007501000800000000750100087501000846
:1000400075010008750100087501000875010008B8
:1000500075010008750100087501000875010008A8
:100060007501000875010008750100087501000898
:100070007501000875010008750100087501000888
:100080007501000875010008750100087501000878
:100090007501000875010008750100087501000868
:1000A0007501000875010008750100087501000858
:1000B0007501000875010008750100087501000848
:1000C0007501000875010008750100087501000838
:1000D0007501000875010008750100087501000828
:0C00E0007501000875010008750100089A
:1000EC0010B5054C237833B9044B13B10448AFF366
:1000FC0000800123237010BD0400002000000000CC
:10010C00DC0A000808B5034B1BB103490348AFF3E5
:10011C00008008BD0000000008000020DC0A000878
:10012C00002103E00B4B5B58435004310A480B4B46
:10013C0042189A42F6D30A4A02E0002342F8043BE2
:10014C00084B9A42F9D300F011F800F011F800F0C6
:10015C006DFA7047000B000800000020040000201E
:10016C0004000020B8010020FEE70000704700BF2B
:10017C00704700BF0749084B8A6942F010028A6138
:10018C005A6822F470025A605A6842F480125A601B
:10019C00704700BF0010024000100140002282B0E6
:1001AC000092009B984212D90192019BB3F57A7F81
:1001BC0007D200BF019B01330193019BB3F57A7FFA
:1001CC00F7D3009B01330093009B8342ECD302B026
:1001DC00704700BF4FF00A0C4FF40050002200B5DE
:1001EC003A4989B04FF0320E48610292029B734536
:1001FC0012D20392039BB3F57A7F07D200BF039B05
:10020C0001330393039BB3F57A7FF7D3029B01333E
:10021C000293029B7345ECD308610092009B7345DB
:10022C0012D20192019BB3F57A7F07D200BF019BDA
:10023C0001330193019BB3F57A7FF7D3009B013314
:10024C000093009B7345ECD30EF1140EBEF1960F88
:10025C00CAD14FF0820E48610692069B734512D2AA
:10026C000792079BB3F57A7F07D200BF079B013338
:10027C000793079BB3F57A7FF7D3069B013306935D
:10028C00069B7345ECD308610492049B734512D210
:10029C000592059BB3F57A7F07D200BF059B01330E
:1002AC000593059BB3F57A7FF7D3049B0133049335
:1002BC00049B7345ECD3AEF1140EBEF11E0FCAD1E4
:1002CC00BCF1010C8ED109B05DF804FB00100140AB
:1002DC0030B403214FF40054002246488AB0032561
:1002EC0044610292029B632B12D80392039BB3F5D9
:1002FC007A7F07D200BF039B01330393039BB3F5B3
:10030C007A7FF7D3029B01330293029B632BECD9C8
:10031C0004610092009B632B12D80192019BB3F5F0
:10032C007A7F07D200BF019B01330193019BB3F588
:10033C007A7FF7D3009B01330093009B632BECD99E
:10034C00013DCDD10495049BB3F5FA7F13D20592F0
:10035C00059BB3F57A7F07D200BF059B013305934C
:10036C00059BB3F57A7FF7D3049B01330493049B6D
:10037C00B3F5FA7FEBD30139B1D103224FF400501E
:10038C001C4C60610891089BB3F5487F13D209910E
:10039C00099BB3F57A7F07D200BF099B0133099300
:1003AC00099BB3F57A7FF7D3089B01330893089B1D
:1003BC00B3F5487FEBD320610691069BB3F5487FDC
:1003CC0013D20791079BB3F57A7F07D200BF079B27
:1003DC0001330793079BB3F57A7FF7D3069B013361
:1003EC000693069BB3F5487FEBD3013AC9D10AB00B
:1003FC0030BC70470010014010B405214FF400547C
:10040C000022894895B044610292029B632B12D85A
:10041C000392039BB3F57A7F07D200BF039B013392
:10042C000393039BB3F57A7FF7D3029B01330293BB
:10043C00029B632BECD904610092009B632B12D8B6
:10044C000192019BB3F57A7F07D200BF019B013368
:10045C000193019BB3F57A7FF7D3009B0133009393
:10046C00009B632BECD90139CDD10491049BB3F5DE
:10047C00FA7F13D20591059BB3F57A7F07D200BFA3
:10048C00059B01330593059BB3F57A7FF7D3049B4A
:10049C0001330493049BB3F5FA7FEBD303214FF4A0
:1004AC0000540022604844610892089B632B12D8C8
:1004BC000992099BB3F57A7F07D200BF099B0133E0
:1004CC000993099BB3F57A7FF7D3089B0133089303
:1004DC00089B632BECD904610692069B952B12D8D2
:1004EC000792079BB3F57A7F07D200BF079B0133B6
:1004FC000793079BB3F57A7FF7D3069B01330693DB
:10050C00069B952BECD90139CDD10E910E9BB3F5F1
:10051C00967F13D20F910F9BB3F57A7F07D200BF52
:10052C000F9B01330F930F9BB3F57A7FF7D30E9B81
:10053C0001330E930E9BB3F5967FEBD34FF4005122
:10054C000022394B59610C920C9BB3F5FA7F13D2F4
:10055C000D920D9BB3F57A7F07D200BF0D9B013333
:10056C000D930D9BB3F57A7FF7D30C9B01330C9352
:10057C000C9BB3F5FA7FEBD34FF4005100222A4BBE
:10058C0019610A920A9BB3F5967F13D20B920B9BBF
:10059C00B3F57A7F07D200BF0B9B01330B930B9BF8
:1005AC00B3F57A7FF7D30A9B01330A930A9BB3F511
:1005BC00967FEBD304214FF4005400221A48446177
:1005CC001292129B772B12D81392139BB3F57A7F4E
:1005DC0007D200BF139B01331393139BB3F57A7FA0
:1005EC00F7D3129B01331293129B772BECD9046136
:1005FC001092109B772B12D81192119BB3F57A7F26
:10060C0007D200BF119B01331193119BB3F57A7F75
:10061C00F7D3109B01331093109B772BECD9013936
:10062C00CDD115B010BC70470010014030B5A3B04F
:10063C00FFF7A0FD4FF400540321002274484461DD
:10064C000292029BB3F5FA7F13D20392039BB3F58C
:10065C007A7F07D200BF039B01330393039BB3F54F
:10066C007A7FF7D3029B01330293029BB3F5FA7F97
:10067C00EBD304610092009BB3F5FA7F13D2019285
:10068C00019BB3F57A7F07D200BF019B0133019325
:10069C00019BB3F57A7FF7D3009B01330093009B4A
:1006AC00B3F5FA7FEBD30139C9D14FF47A70FFF768
:1006BC0075FD4FF400550122554C00200146656133
:1006CC000691069BC72B12D80791079BB3F57A7F2F
:1006DC0007D200BF079B01330793079BB3F57A7FC3
:1006EC00F7D3069B01330693069BC72BECD92561E8
:1006FC000491049BC72B12D80591059BB3F57A7F07
:10070C0007D200BF059B01330593059BB3F57A7F98
:10071C00F7D3049B01330493049BC72BECD9013012
:10072C009042CCD100210891089BB3F5487F13D29D
:10073C000991099BB3F57A7F07D200BF099B01335E
:10074C000993099BB3F57A7FF7D3089B0133089380
:10075C00089BB3F5487FEBD3931E032B00F24D811E
:10076C00DFE813F02C01C30058000400FFF744FE2F
:10077C000521002265611C921C9B952B12D81D92A1
:10078C001D9BB3F57A7F07D200BF1D9B01331D93D0
:10079C001D9BB3F57A7FF7D31C9B01331C931C9BD9
:1007AC00952BECD925611A921A9B952B12D81B927A
:1007BC001B9BB3F57A7F07D200BF1B9B01331B93A6
:1007CC001B9BB3F57A7FF7D31A9B01331A931A9BB1
:1007DC00952BECD90139CDD11E911E9BB3F5FA6F37
:1007EC0013D21F911F9BB3F57A7F07D200BF1F9BBB
:1007FC0001331F931F9BB3F57A7FF7D31E9B0133F5
:10080C001E931E9BB3F5FA6FEBD3012255E700BF85
:10081C00001001400620002165611891189BB3F56A
:10082C00967F13D21991199BB3F57A7F07D200BF2B
:10083C00199B01331993199BB3F57A7FF7D3189B46
:10084C0001331893189BB3F5967FEBD32561169162
:10085C00169BC72B12D81791179BB3F57A7F07D22B
:10086C0000BF179B01331793179BB3F57A7FF7D310
:10087C00169B01331693169BC72BECD9656114910B
:10088C00149BB3F5967F13D21591159BB3F57A7F14
:10089C0007D200BF159B01331593159BB3F57A7FD7
:1008AC00F7D3149B01331493149BB3F5967FEBD3BE
:1008BC0025611291129BC72B12D81391139BB3F580
:1008CC007A7F07D200BF139B01331393139BB3F5AD
:1008DC007A7FF7D3129B01331293129BC72BECD95F
:1008EC00013899D10132D2B26BE008200021656148
:1008FC001091109B952B12D81191119BB3F57A7F07
:10090C0007D200BF119B01331193119BB3F57A7F72
:10091C00F7D3109B01331093109B952BECD92561C9
:10092C000E910E9B952B12D80F910F9BB3F57A7FDE
:10093C0007D200BF0F9B01330F930F9BB3F57A7F48
:10094C00F7D30E9B01330E930E9B952BECD965615F
:10095C000C910C9B952B12D80D910D9BB3F57A7FB6
:10096C0007D200BF0D9B01330D930D9BB3F57A7F1E
:10097C00F7D30C9B01330C930C9B952BECD9256175
:10098C000A910A9BB3F5E17F13D20B910B9BB3F544
:10099C007A7F07D200BF0B9B01330B930B9BB3F5F4
:1009AC007A7FF7D30A9B01330A930A9BB3F5E17F55
:1009BC00EBD301389BD10132D2B202E0FFF788FCB5
:1009CC00032200212091209BB3F57A7FBFF475AEF2
:1009DC002191219BB3F57A7F07D200BF219B013374
:1009EC002193219BB3F57A7FF7D3209B013320937E
:1009FC00209BB3F57A7FEBD35FE6FFF7EBFB02228C
:100A0C00DFE700BF70477047024B13B1024800F09C
:100A1C0005B8704700000000350A000800230146A5
:100A2C001A46184600F014B838B5074D074C641B2D
:100A3C00A4101CB9BDE8384000F050B8013C55F882
:100A4C0024309847F5E700BFFC0A0008000B0008AB
:100A5C002DE9F047DFF86CA00646DAF8000098465E
:100A6C000F469146FFF7CEFF174B1C680CB9174C7D
:100A7C001C606568DAF800001F2D05DDFFF7C3FF69
:100A8C004FF0FF30BDE8F0879EB1012204EB8501E9
:100A9C00C1F88890D4F88831AA401343C4F888313F
:100AAC00022EC1F8088102BFD4F88C311343C4F86C
:100ABC008C316B1C0235636044F82570FFF7A3FF83
:100ACC000020DFE700000020240000202800002088
:100ADC00F8B500BFF8BC08BC9E467047F8B500BF1F
:080AEC00F8BC08BC9E467047EF
:080AF400150A000811010008B9
:040AFC00ED00000801
:040B000020000020B1
:040000050800012DC1
:00000001FF
