:020000040800F2
:10000000005000202D01000875010008750100084E
:100010007501000875010008750100080000000066
:100020000000000000000000000000007501000852
:100030007501000800000000750100087501000846
:1000400075010008750100087501000875010008B8
:1000500075010008750100087501000875010008A8
:100060007501000875010008750100087501000898
:100070007501000875010008750100087501000888
:100080007501000875010008750100087501000878
:100090007501000875010008750100087501000868
:1000A0007501000875010008750100087501000858
:1000B0007501000875010008750100087501000848
:1000C0007501000875010008750100087501000838
:1000D0007501000875010008750100087501000828
:0C00E0007501000875010008750100089A
:1000EC0010B5054C237833B9044B13B10448AFF366
:1000FC0000800123237010BD0400002000000000CC
:10010C004C0A000808B5034B1BB103490348AFF375
:10011C00008008BD00000000080000204C0A000808
:10012C00002103E00B4B5B58435004310A480B4B46
:10013C0042189A42F6D30A4A02E0002342F8043BE2
:10014C00084B9A42F9D300F0E5F900F0EFFB00F010
:10015C00FDF87047EC0A00080000002004000020A5
:10016C0004000020B8010020FEE70000002282B04D
:10017C000092009B984211D90192019BB3F5FA5F52
:10018C0006D2019B01330193019BB3F5FA5FF8D3BF
:10019C00009B01330093009B8342EDD302B0704768
:1001AC001148124B8269124942F01C0282615A6852
:1001BC0022F470025A605A6842F480125A600B683A
:1001CC000C4A6FF30F030B600B6843F4885343F036
:1001DC0011030B60136823F0FF031360136843F0E3
:1001EC0011031360704700BF0090024000100140E3
:1001FC0000080140000C01402DE9F04192B00DF1D6
:10020C00340E7746032500244F4E0DF120080FCEF7
:10021C00A8E80F0056F8043B0DF1480CC8F8003064
:10022C000FCE0FC733683B60724608AE52F8041B02
:10023C0056F8040B48610094009B952B11D801943F
:10024C00019BB3F5FA5F06D2019B01330193019B2D
:10025C00B3F5FA5FF8D3009B01330093009B952B09
:10026C00EDD962450861E1D1013DDDD1022412AA2C
:10027C000DAE52F8041D56F8040D48610295029B10
:10028C00952B11D80395039BB3F5FA5F06D2039B0C
:10029C0001330393039BB3F5FA5FF8D3029B01334D
:1002AC000293029B952BEDD972450861E1D1012C8B
:1002BC0001D00124DBE703210022734608A853F880
:1002CC00044B50F8045B63456561F8D10492049BC0
:1002DC00B3F5967F12D20592059BB3F5FA5F06D261
:1002EC00059B01330593059BB3F5FA5FF8D3049B8B
:1002FC0001330493049BB3F5967FECD3734608A8A3
:10030C0053F8044B50F8045B63452561F8D1069211
:10031C00069BB3F5967F12D20792079BB3F5FA5F53
:10032C0006D2079B01330793079BB3F5FA5FF8D30B
:10033C00069B01330693069BB3F5967FECD30139EC
:10034C00BBD112B0BDE8F081640A000870B58EB064
:10035C00FFF726FFFFF750FF4FF4FA60FFF706FF99
:10036C0001216A4D6A4C00204FF4005602466E6122
:10037C000292029BC72B11D80392039BB3F5FA5F31
:10038C0006D2039B01330393039BB3F5FA5FF8D3B7
:10039C00029B01330293029BC72BEDD92E61009275
:1003AC00009BC72B11D80192019BB3F5FA5F06D2C3
:1003BC00019B01330193019BB3F5FA5FF8D3009BCA
:1003CC0001330093009BC72BEDD901308842CED16D
:1003DC0000220492049BB3F57A7F12D20592059BFE
:1003EC00B3F5FA5F06D2059B01330593059BB3F574
:1003FC00FA5FF8D3049B01330493049BB3F57A7F23
:10040C00ECD3023903297CD8DFE801F0777355026D
:10041C0000F05CFA4FF4005605210F2000226E61AB
:10042C0060610892089B632B11D80992099BB3F564
:10043C00FA5F06D2099B01330993099BB3F5FA5F66
:10044C00F8D3089B01330893089B632BEDD92E61DD
:10045C0020610692069B632B11D80792079BB3F57C
:10046C00FA5F06D2079B01330793079BB3F5FA5F3C
:10047C00F8D3069B01330693069B632BEDD9013908
:10048C00CDD140F6B7320A910A9B934211D80B9109
:10049C000B9BB3F5FA5F06D20B9B01330B930B9BB3
:1004AC00B3F5FA5FF8D30A9B01330A930A9B934284
:1004BC00EDD9012157E700F0A3F90521002040F206
:1004CC00DB520C900C9B93423FF64DAF0D900D9B65
:1004DC00B3F5FA5F06D20D9B01330D930D9BB3F56B
:1004EC00FA5FF8D30C9B01330C930C9B9342EDD920
:1004FC0039E700F015F90421E0E700F091F8032149
:10050C00DCE700F009F80221D8E700BF0010014039
:10051C0000080140704700BF2DE9F0474FF0020A78
:10052C003C4A3D4D936986B043F00C0393612B68B4
:10053C00A2F5C2326FF30F032B602B68374E43F4D6
:10054C00885343F011032B60136801AC23F0FF03B5
:10055C00136013680DF1160943F0110313600FCEED
:10056C000FC4336823804FF00108022701AE0A2420
:10057C0012E0C5F814807378B3B16F61B378BBB176
:10058C0004236B613220FFF7F1FD072320462B611A
:10059C00FFF7ECFD013C22D03378002BE9D1C5F8F4
:1005AC0010807378002BE8D12F61B378002BE7D142
:1005BC0004232B61E6E7C5F814807378BBB16F6137
:1005CC00B378C3B104236B613220FFF7CFFD07234F
:1005DC0020462B610134FFF7C9FD0A2C0ED033786D
:1005EC00002BE8D1C5F810807378002BE7D12F6170
:1005FC00B378002BE6D104232B61E5E703364E4597
:10060C00B5D1BAF1010F02D04FF0010AABE706B039
:10061C00BDE8F08700900240000801408C0A0008F9
:10062C002DE9F0410A244FF40058394A39499369AD
:10063C00394F43F00C0393610B68A2F5C2326FF390
:10064C000F030B600B6843F4885343F011030B60EA
:10065C00136823F0FF031360136843F01103136056
:10066C0001262E4D6420C7F814806E61FFF77EFDC5
:10067C00C7F8108064202E61FFF778FD013CEFD1A4
:10068C004FF4FA70FFF772FD03274FF4005605F58F
:10069C008065002420466E61FFF768FDC4F1C80038
:1006AC002E610A34FFF762FDC82CF3D120466E612F
:1006BC00FFF75CFDC4F1C8002E61FFF757FD0A3C43
:1006CC00F4D1013FE5D14FF4FA70FFF74FFD4FF035
:1006DC0005084FF4005708260F4D0E4C96206F61FD
:1006EC006661FFF743FD96202F612661FFF73EFD03
:1006FC0096206F616661FFF739FD2F614FF4C8706A
:10070C002661FFF733FDB8F10108E7D1BDE8F081B0
:10071C00009002400008014000100140000C014014
:10072C002DE9F04F314A324F93698BB043F00C03F3
:10073C0093613B68DFF8BC806FF30F033B603B6851
:10074C004FF4005643F4885343F011033B60D8F840
:10075C000030DFF8A4C023F0FF03C8F80030D8F84D
:10076C00003002AC43F01103C8F8003002230193AF
:10077C00BCE80F000FC49CE80F0084E80F001F4D6D
:10078C000DF126090DF1060A15E0032101226E6117
:10079C007961C8F8142044082046FFF7E7FC4FF0B5
:1007AC00010B03222E6120463A61C8F810B0FFF706
:1007BC00DDFCCA450CD03AF8020FB0F5C87FE4D284
:1007CC00B0F5967F25BF01226E616E617A61E2E71A
:1007DC004FF4FA70FFF7CAFC019B5B4502D0CDF8D1
:1007EC0004B0CFE70BB0BDE8F08F00BF0090024023
:1007FC0000080140000C0140A00A00080010014054
:10080C002DE9F04389B0EC462C4A03270125936966
:10081C002B4C43F00C0393612368A2F5C2326FF3A7
:10082C000F0323602368DFF89CE043F4885343F004
:10083C00110323601368244E23F0FF031360136825
:10084C0043F011031360BEE80F00ACE80F009EE804
:10085C000F008CE80F00E9464FF000084A460023D1
:10086C0012F8010B05FA03F128B321610133042BB3
:10087C00F6D14FF4005318F0010F0CBF73613361C4
:10088C004FF4967008F10108FFF770FCB8F1080FEF
:10089C0009F10409E2D14FF47A70FFF767FC013FCC
:1008AC00D9D10F204FF400520549074B08611A614A
:1008BC0009B0BDE8F0836161D8E700BF0090024049
:1008CC0000080140C00A00080010014070B5032464
:1008DC004FF40056144DC8206E61FFF747FCC8203A
:1008EC002E61FFF743FC013CF5D14FF47A70FFF712
:1008FC003DFCFFF711FE4FF47A70FFF737FCFFF762
:10090C008FFE4FF47A70FFF731FCFFF709FF4FF4BD
:10091C007A70FFF72BFCFFF773FFBDE870404FF4C4
:10092C00FA60FFF723BC00BF0010014070B5002631
:10093C000C4D0D4C641BA410A64209D100F080F89C
:10094C0000260A4D0A4C641BA410A64205D170BDAA
:10095C0055F8043B98470136EEE755F8043B9847A9
:10096C000136F2E7E00A0008E00A0008E00A000895
:10097C00E80A000870477047024B13B1024800F0B8
:10098C0005B8704700000000A509000800230146C7
:10099C001A46184600F014B838B5074D074C641BBE
:1009AC00A4101CB9BDE8384000F050B8013C55F813
:1009BC0024309847F5E700BFE80A0008EC0A000865
:1009CC002DE9F047DFF86CA00646DAF800009846EF
:1009DC000F469146FFF7CEFF174B1C680CB9174C0E
:1009EC001C606568DAF800001F2D05DDFFF7C3FFFA
:1009FC004FF0FF30BDE8F0879EB1012204EB85017A
:100A0C00C1F88890D4F88831AA401343C4F88831CF
:100A1C00022EC1F8088102BFD4F88C311343C4F8FC
:100A2C008C316B1C0235636044F82570FFF7A3FF13
:100A3C000020DFE700000020240000202800002018
:100A4C00F8B500BFF8BC08BC9E467047F8B500BFAF
:080A5C00F8BC08BC9E4670477F
:100A6400002000000100000002000000040000005B
:100A74000800000000100140000801400008014087
:100A840000080140000801400100000101000001CC
:100A94000000010100000101000100009001C800F4
:100AA4002C01C8009001C8002C01C800900164000A
:100AB4006400C8002C012C01C800C8000101010019
:100AC4000101000001000001000001010001010119
:0C0AD4000101010001010000010000010F
:080AE00085090008110100085E
:040AE800ED00000815
:040AEC0020000020C6
:040000050800012DC1
:00000001FF
