:0C800000F8B500BFF8BC08BC9E467047F5
:10800C0008B50021044600F0B7FB034B1B6803B115
:10801C009847204600F06EF950A9000008B500F012
:10802C007BF800F0A2F84FF4FA7000F089F800F039
:10803C00ADF84FF47A7000F083F800F0D7F84FF4F5
:10804C007A7000F07DF8ECE7024B13B1024800F0B7
:10805C00E9BB7047000000004D91000010B5054CC5
:10806C00237833B9044B13B10448AFF300800123D8
:10807C00237010BDF4A700000000000074920000F3
:10808C0008B5034B1BB103490348AFF3008008BD8F
:10809C0000000000F8A7000074920000A3F5803ADD
:1080AC00704700BF174B002B08BF134B9D46FFF7C3
:1080BC00F5FF00218B460F461348144A121A00F0A4
:1080CC00A8FA0E4B002B00D098470D4B002B00D07C
:1080DC0098470020002104000D000D48002802D014
:1080EC000C4800F09FFB00F017FB20002900FFF765
:1080FC0095FFFFF785FF00BF00000800000000009F
:10810C000000000000000000F4A7000028AB0000F5
:10811C00318800004D910000074A936943F01C031D
:10812C009361064B5A6822F470025A605A6842F402
:10813C0080125A60704700BF00900240001001404E
:10814C00002282B00092009B834201D302B07047A0
:10815C000192019BB3F5FA5F03D3009B01330093AB
:10816C00F1E7019B01330193F3E7064B4FF4005108
:10817C001878054A18B1116100221A7070475161C4
:10818C000122FAE710A800000010014037B5144A8C
:10819C00144992F90030088803EB830303449BB223
:1081AC00632B0B8013D9FF21117000224FF4005464
:1081BC0015460D489A42B4BF44610461019501997A
:1081CC00632908DD0132642AF4D103B030BD002BE1
:1081DC00EBD10121E8E7019901310191EFE700BFF3
:1081EC008CA2000012A800000010014038B54FF41A
:1081FC0000550A4C64206561FFF7A2FF64202561DD
:10820C00FFF79EFF64206561FFF79AFF25614FF42D
:10821C00FA70BDE83840FFF793BF00BF0010014073
:10822C00F8B507254FF40057084E03243220776128
:10823C00FFF786FF32203761FFF782FF013CF5D153
:10824C00C820FFF77DFF013DEFD1F8BD00100140C4
:10825C0070B503264FF400550D4C64206561FFF793
:10826C006FFF64202561FFF76BFF013EF5D14FF4E2
:10827C009670FFF765FF4FF4FA706561FFF760FFCA
:10828C0025614FF4FA70BDE87040FFF759BF00BF8D
:10829C000010014070B505244FF40056054D5020D8
:1082AC006E61FFF74DFF50202E61FFF749FF013C37
:1082BC00F5D170BD001001404FF0FF3070474FF406
:1082CC00005300204B60704701207047002070471E
:1082DC000020704710467047044A0346116809B9DC
:1082EC0003491160106803441360704714A8000020
:1082FC0028AB0000FEE700BF002310B50446C0E920
:10830C000033C0E90433836081814366C281836199
:10831C00194608225C3000F07CF90D4BE4612362B5
:10832C000C4B63620C4BA3620C4BE3620C4B9C42F8
:10833C0006D003F16802944202D0D0339C4205D19E
:10834C0004F15800BDE8104000F00BBA10BD00BF9E
:10835C0095850000BB850000F385000017860000A2
:10836C0018A80000024A0349034800F0EFB800BF08
:10837C0090A20000F58E0000A0A2000041680C4BFA
:10838C0010B59942044601D000F0AEFDA168094B2E
:10839C00994202D0204600F0A7FDE168064B9942B5
:1083AC0004D02046BDE8104000F09EBD10BD00BFBB
:1083BC0018A8000080A80000E8A8000008B54B6EC3
:1083CC00DA0705D48B899B0502D4886D00F0CDF9B2
:1083DC00002008BD08B54B6EDA0705D48B899B05C8
:1083EC0002D4886D00F0C7F9002008BD10B50B4B06
:1083FC000B4C0C4A20461A6004210022FFF77CFF2C
:10840C0004F1680001220921FFF776FF04F1D00086
:10841C000222BDE810401221FFF76EBF50A90000E8
:10842C0018A8000071830000014800F09EB900BF3D
:10843C005FA90000014800F09EB900BF5FA90000D1
:10844C00F8B50746FFF7F0FF234B1B680BB9FFF796
:10845C00CDFF224ED6E90134013B0FD53568002DF6
:10846C0037D14FF4D671384600F0F8FA044628BBE1
:10847C003060FFF7DFFF0C233B601BE0B4F90C50BE
:10848C00D5B9174B04F15800E360656600F069F943
:10849C00FFF7D0FF08222946C4E90155C4E9045569
:1084AC002560A56104F15C0000F0B3F8C4E90C553B
:1084BC00C4E911552046F8BD6834CDE704230560A6
:1084CC0043600C304FF4D0722946A06000F0A1F844
:1084DC0034603668BEE700BF50A9000090A20000CF
:1084EC000100FFFF10B50446FFF79EFF636B1BB145
:1084FC00BDE81040FFF79EBF044B6363044B1B6841
:10850C00002BF5D1FFF772FFF2E700BF8983000063
:10851C0050A9000008B5FFF787FFBDE80840002010
:10852C00014A024900F012B890A20000C983000071
:10853C0008B50020034A044900F008F8BDE80840DB
:10854C00FFF778BF90A20000E18300002DE9F8430B
:10855C000746884614460026D4E90195B9F101096D
:10856C0005D52468002CF7D13046BDE8F883AB89DB
:10857C00012B07D9B5F90E30013303D02946384603
:10858C00C04706436835E9E710B50C46B1F90E1043
:10859C0000F09EF80028ABBF236DA3891B1823F4B1
:1085AC008053ACBF2365A38110BD002070472DE91B
:1085BC00F0411F468B890546DB050C46164605D552
:1085CC0002230022B1F90E1000F070F8A389324694
:1085DC0023F48053A38128463B46B4F90E10BDE822
:1085EC00F04100F087B810B50C46B1F90E1000F050
:1085FC005DF8431CA38915BF206523F4805343F415
:10860C008053A38118BFA38110BDB1F90E1000F0E7
:10861C0009B803460244934200D1704703F8011B8A
:10862C00F9E7000038B50023054D044608462B60D9
:10863C00FFF742FE431C02D12B6803B1236038BD07
:10864C0054A90000184B70B51B68044683422AD00D
:10865C00436C53B10025636C595999B90435802D7D
:10866C00F9D12046616C00F039F9A16B11B12046AB
:10867C0000F034F9256C5DB1294620462D6800F0D8
:10868C002DF9F8E70E68204600F028F93146E4E7AA
:10869C00E16C11B1204600F021F9636B1BB120464F
:1086AC00BDE87040184770BD9CA2000038B5044668
:1086BC00084611460022054D2A601A46FFF706FEB1
:1086CC00431C02D12B6803B1236038BD54A90000B0
:1086DC0038B50446084611460022054D2A601A4654
:1086EC00FFF7F6FD431C02D12B6803B1236038BDA4
:1086FC0054A9000038B50446084611460022054D21
:10870C002A601A46FFF7E6FD431C02D12B6803B121
:10871C00236038BD54A9000070B500260C4D0D4CDB
:10872C00641BA410A64209D1FFF764FC00260A4D75
:10873C000A4C641BA410A64205D170BD55F8043B2D
:10874C0098470136EEE755F8043B98470136F2E7B7
:10875C0078A2000078A2000078A2000080A200009D
:10876C0070477047704770477047704701207047DB
:10877C0001207047704770472DE9F74F274F019044
:10878C0038680E464FF0010AFFF7EFFFDFF89080D4
:10879C00D8F800502DB9386803B0BDE8F04FFFF79A
:1087AC00EABF6C6804F1FF39013405EB8404B9F1BC
:1087BC00000FF0DB3EB1D4F80021B24203D009F136
:1087CC00FF39043CF3E7696822680139494516BF53
:1087DC000023C5F804902360002AF0D0D5F8881146
:1087EC000AFA09FC1CEA010FD5F804B008D190472D
:1087FC006968D8F800205945CAD19542DFD0C7E73F
:10880C00D5F88C01D4F880101CEA000F02D1019825
:10881C009047EDE708469047EAE700BFE0A3000069
:10882C0060A90000002301461A46184600F0A8BCB7
:10883C002DE9F84306460820894600F095FC804651
:10884C00234F304600F044FBBB685D6825F0030500
:10885C00A5F11104A4EB09044444B4FBF8F4013C65
:10886C0008FB04F4A04505DD304600F037FB002082
:10887C00BDE8F8830021304600F052FCBB682B4465
:10888C009842F1D13046614200F04AFC013010D1DF
:10889C000021304600F044FCBA68831A0F2BE3DD4C
:1088AC000C4943F0010309685360401A0A490860F7
:1088BC00DAE7BB68084A2D1B45F001055D601368BB
:1088CC0030461B1B136000F009FB0120D0E700BFF2
:1088DC00ECA30000E4A3000064A90000F8B5044672
:1088EC000F46002900F0B18000F0F2FA57F8042C82
:1088FC00564D22F00100A7F1080303EB000CA96808
:10890C00DCF80460614526F0030602F001021BD17D
:10891C0006443AB957F8082C9B1A1644D3E90212AC
:10892C00CA60916046F001025A60AB60484B1B680C
:10893C00B34204D8474B20461968FFF779FF20460D
:10894C00BDE8F84000F0CABACCF80460002A38D16F
:10895C0057F8081C05F108075B1A08449968B942D6
:10896C0031D0DF68CF60B9600CEB06014968C907EC
:10897C000BD4DCF8081030443ABB374EB14224D14A
:10898C000122C5E90433C3E9021140F00101596029
:10899C001850002AD3D1B0F5007F1BD20121C20898
:1089AC0040098140686801320143696055F8320022
:1089BC0005EBC2010839C3E9020145F83230C36046
:1089CC00BDE70022D0E70122CEE7DCF80C60CE60D8
:1089DC00B160DAE7B0F5206F4FEA502214D2820969
:1089EC003832511C55F8311005EBC2068E4225D198
:1089FC000120921000FA02F2686802436A60C3E92F
:108A0C000216B360CB609AE7142A01D85B32E8E710
:108A1C00542A02D8020B6E32E3E7B2F5AA7F02D8D1
:108A2C00C20B7732DDE740F254518A4296BF820C7A
:108A3C007E227C32D5E789688E4204D04A6822F0C7
:108A4C0003028242F7D8CE68D9E7F8BDECA3000048
:108A5C00E8A3000094A90000F4A3000001F10B03AB
:108A6C00162B2DE9F74F054606D933F0070704D529
:108A7C000C232B600024A1E11027B942F8D828461A
:108A8C0000F026FAB7F5FC7FAE4E37D207F108029C
:108A9C0032445468A2F108018C424FEAD70302D148
:108AAC00D468A24210D0D4E902126368CA6023F0E1
:108ABC000303916023445A6842F001025A6028462D
:108ACC0000F00CFA083479E1023334699E498C4287
:108ADC0077D0626822F0030CACEB07000F2848DD5E
:108AEC00E21940F0010347F001076760C6E9042270
:108AFC00C2E90211536044F80C00E0E77B0A2AD06B
:108B0C00042B12D8BB0938335A1C06EBC20254682A
:108B1C00A2F1080C644506D0626822F00302D01B57
:108B2C000F281CDD013B0133CFE7142B01D85B333D
:108B3C00EAE7542B02D83B0B6E33E5E7B3F5AA7F7B
:108B4C0002D8FB0B7733DFE740F25452934204D840
:108B5C00BB0C7C33D8E73F23D6E77E23D4E7002831
:108B6C00E16804DBA368D9608B60A318A3E70C460B
:108B7C00D0E70028C6E9041107DBA444DCF8043074
:108B8C0043F00103CCF8043099E7BCF5007F706822
:108B9C0080F093804FEADC024FEA5C1E4FF0010C30
:108BAC000CFA0EFC4CEA0000013256F832C0706030
:108BBC0006EBC2000838C4E902C046F83240CCF8D3
:108BCC000C400122981082407068904226D31042CB
:108BDC0006D123F003035200104203F10403FAD030
:108BEC0006EBC308C1469E46D9F80C404C4540F0F4
:108BFC00B7800EF1010E1EF0030F09F10809F3D135
:108C0C00980740F0E180736823EA02037360706890
:108C1C005200904202D3002A40F0E280D6F808A01D
:108C2C00DAF8043023F00309B94504D3A9EB0702A1
:108C3C000F2A00F34081454B082019680AEB090BF9
:108C4C0010313944019100F08FFA414A01991368AF
:108C5C00804601331FBF01F1FF310918434219400F
:108C6C002846019100F05CFA421C044600F0F680A4
:108C7C0083450199364A02D9B24540F0EF80354B15
:108C8C00A345186808F1FF3C0844186040F0AA801E
:108C9C001BEA0C0F40F0A680B268494441F0010178
:108CAC0051602D4A1B6811688B4288BF13602B4A98
:108CBC0011688B4288BF1360D0E0BCF5206F4FEA7F
:108CCC005C2218D24FEA9C12383202F1010E56F88F
:108CDC003EE006EBC208F0452BD14FF0010C921090
:108CEC000CFA02F202437260C4E902E8C8F80840C8
:108CFC00CEF80C4065E7142A01D85B32E5E7542A1C
:108D0C0003D84FEA1C326E32DFE7B2F5AA7F03D8E4
:108D1C004FEADC327732D8E740F2545E724596BFA8
:108D2C004FEA9C427E227C32CFE7DEF808E0F04529
:108D3C0005D0DEF8042022F003026245F5D8DEF8F7
:108D4C000C80D1E7ECA30000F4A3000094A9000070
:108D5C00E4A3000064A9000090A900008CA9000005
:108D6C006068D4F80CC020F00300A0EB070ABAF13D
:108D7C000F0F12DDA368E21947F001076760C3F813
:108D8C000CC0CCF808304AF00103C6E90422C2E951
:108D9C000211536044F800A091E6BAF1000F11DB08
:108DAC002044436843F00103436054F8083F2846CD
:108DBC00C3F80CC0CCF8083000F090F8204603B093
:108DCC00BDE8F08F644611E758F80809013B4045AF
:108DDC003FF416AF1BE7043352001042FBD0FFE602
:108DEC007346FAE7D2F800E0BEF1FF3F1BBFA4EBDD
:108DFC000B0B0BEB000214601A6014F0070B0EBF88
:108E0C005846CBF108002418621802EA0C01804481
:108E1C00A8EB010808EA0C0841462846019200F02C
:108E2C007FF9431C019A294B07D1BBF1000F23D0CA
:108E3C004FF00008ABF1080010441A68001B4044C6
:108E4C00424440F00100B245B4601A6060603FF4E7
:108E5C0028AFB9F10F0F12D801236360B3685B68B8
:108E6C0023F00303BB42A3EB070201D30F2A22DC3E
:108E7C00284600F033F8FDE51046D846DDE705211D
:108E8C00DAF80420A9F10C0929F0070902F0010213
:108E9C0042EA0902CAF80420B9F10F0F0AEB0902E1
:108EAC00C2E901117FF6FDAE28460AF10801FFF771
:108EBC0015FD064BF5E6B46847F0010342F00102DC
:108ECC0027446360B7607A60F9E500BF64A90000CD
:108EDC000148FFF74ABC00BF5CA900000148FFF73E
:108EEC004ABC00BF5CA9000070B505460C46B9B180
:108EFC0018B1436B0BB9FFF7F5FA626EB4F90C308D
:108F0C00D60704D498050ED4A06DFFF72EFCB4F947
:108F1C000C3043B9636ED90702D4A06DFFF72BFC5C
:108F2C000026304670BD2146284600F03BF8E36A27
:108F3C00064633B12846E16998470028B8BF4FF080
:108F4C00FF36A3891A0603D528462169FFF7C6FC0C
:108F5C00216B41B104F14003994202D02846FFF73E
:108F6C00BDFC00232363616C21B12846FFF7B6FCDE
:108F7C0000236364FFF758FA0023A381636EDB07B9
:108F8C0002D4A06DFFF7F7FBA06DFFF7ECFBFFF72A
:108F9C0051FAC6E7024B01461868FFF7A5BF00BFA0
:108FAC009CA20000F8B50546B1F90C000C4606076A
:108FBC0057D440F400638B814B68002B02DCCB6BE5
:108FCC00002B4CDDA66A002E49D0002310F48052F1
:108FDC002F68E1692B6034D0226DA389590705D520
:108FEC006368D21A236B0BB1E36BD21A00232846A9
:108FFC00A66AE169B047431C06D12A681D2A47D8E6
:10900C00294BD340DE0743D5B4F90C3023F400626E
:10901C00A281002262602269D904226004D5421C1C
:10902C0001D12B6803B92065216B2F60B9B104F114
:10903C004003994202D02846FFF750FC00232363DB
:10904C000DE001232846B0470246501CC5D12B68C1
:10905C00002BC2D01D2B01D0162B19D12F60002054
:10906C001DE00F69002FFAD0830718BF00230E688C
:10907C0008BF4B69F61B0F608B60002EEFDD33468B
:10908C003A462846E169D4F824C0E047002807DCBA
:10909C004FF0FF30B4F90C3043F04003A381F8BD1E
:1090AC000744361AE9E700BF0100402038B50C46EA
:1090BC00054618B1436B0BB9FFF714FAB4F90C0061
:1090CC00B8B1636EDB0704D4810502D4A06DFFF741
:1090DC004CFB28462146FFF765FF636E0546DA0711
:1090EC0005D4A3899B0502D4A06DFFF744FB284649
:1090FC0038BD0546FBE70000014620B9044A054986
:10910C000548FFF723BA054B1868FFF7CFBF00BF20
:10911C0090A20000B9900000A0A200009CA2000048
:10912C0038B50023054D044608462B60FFF7D4F8EC
:10913C00431C02D12B6803B1236038BD54A9000035
:10914C0038B5074D074C641BA4101CB9BDE838405A
:10915C0000F05CB8013C55F824309847F5E700BFA7
:10916C0080A2000084A20000082808B506D000F0F8
:10917C0047F8162303604FF0FF3008BD8020FCE752
:10918C002DE9F047DFF86CA00646DAF800009846A7
:10919C000F469146FFF7E9FA174B1C680CB9174CB0
:1091AC001C606568DAF800001F2D05DDFFF7E3FA97
:1091BC004FF0FF30BDE8F0879EB1012204EB850132
:1091CC00C1F88890D4F88831AA401343C4F8883188
:1091DC00022EC1F8088102BFD4F88C311343C4F8B5
:1091EC008C316B1C0235636044F82570FFF7C3FAB1
:1091FC000020DFE7E0A3000060A9000098A90000B0
:0C920C00014B1868704700BF9CA20000D6
:0C921800F8B500BFF8BC08BC9E467047CB
:109224003E410C411141274136410341064115415C
:109234000F410E41264113412941024119410A417E
:109244000B4100003E410C4111412741364103418D
:10925400064115410F410E41264113412941024166
:0892640019410A410B41000011
:08926C003CEEFF7F0100000051
:0492740000000000F6
:08A27800558000008D800000FC
:04A2800069800000F1
:10A2880000000000010000000000000003000000C2
:10A2980018A80000A0A200000000000018A80000F4
:10A2A80080A80000E8A800000000000000000000EE
:10A2B8000000000000000000000000000000000096
:10A2C8000000000000000000000000000000000086
:10A2D8000000000000000000000000000000000076
:10A2E8000000000000000000000000000000000066
:10A2F8000000000000000000000000000000000056
:10A308000000000000000000000000000000000045
:10A318000000000000000000000000000000000035
:10A328000000000000000000000000000000000025
:10A3380001000000000000000E33CDAB34126DE6C2
:10A34800ECDE05000B00000000000000000000002B
:10A3580000000000000000000000000000000000F5
:10A3680000000000000000000000000000000000E5
:10A3780000000000000000000000000000000000D5
:10A3880000000000000000000000000000000000C5
:10A3980000000000000000000000000000000000B5
:10A3A80000000000000000000000000000000000A5
:10A3B8000000000000000000000000000000000095
:10A3C8000000000000000000000000000000000085
:10A3D80000000000000000005EA90000FFFFFFFF72
:10A3E800000002000000000000000000ECA30000D4
:10A3F800ECA30000F4A30000F4A30000FCA30000F9
:10A40800FCA3000004A4000004A400000CA40000A5
:10A418000CA4000014A4000014A400001CA4000054
:10A428001CA4000024A4000024A400002CA4000004
:10A438002CA4000034A4000034A400003CA40000B4
:10A448003CA4000044A4000044A400004CA4000064
:10A458004CA4000054A4000054A400005CA4000014
:10A468005CA4000064A4000064A400006CA40000C4
:10A478006CA4000074A4000074A400007CA4000074
:10A488007CA4000084A4000084A400008CA4000024
:10A498008CA4000094A4000094A400009CA40000D4
:10A4A8009CA40000A4A40000A4A40000ACA4000084
:10A4B800ACA40000B4A40000B4A40000BCA4000034
:10A4C800BCA40000C4A40000C4A40000CCA40000E4
:10A4D800CCA40000D4A40000D4A40000DCA4000094
:10A4E800DCA40000E4A40000E4A40000ECA4000044
:10A4F800ECA40000F4A40000F4A40000FCA40000F4
:10A50800FCA4000004A5000004A500000CA50000A0
:10A518000CA5000014A5000014A500001CA500004F
:10A528001CA5000024A5000024A500002CA50000FF
:10A538002CA5000034A5000034A500003CA50000AF
:10A548003CA5000044A5000044A500004CA500005F
:10A558004CA5000054A5000054A500005CA500000F
:10A568005CA5000064A5000064A500006CA50000BF
:10A578006CA5000074A5000074A500007CA500006F
:10A588007CA5000084A5000084A500008CA500001F
:10A598008CA5000094A5000094A500009CA50000CF
:10A5A8009CA50000A4A50000A4A50000ACA500007F
:10A5B800ACA50000B4A50000B4A50000BCA500002F
:10A5C800BCA50000C4A50000C4A50000CCA50000DF
:10A5D800CCA50000D4A50000D4A50000DCA500008F
:10A5E800DCA50000E4A50000E4A50000ECA500003F
:10A5F800ECA50000F4A50000F4A50000FCA50000EF
:10A60800FCA5000004A6000004A600000CA600009B
:10A618000CA6000014A6000014A600001CA600004A
:10A628001CA6000024A6000024A600002CA60000FA
:10A638002CA6000034A6000034A600003CA60000AA
:10A648003CA6000044A6000044A600004CA600005A
:10A658004CA6000054A6000054A600005CA600000A
:10A668005CA6000064A6000064A600006CA60000BA
:10A678006CA6000074A6000074A600007CA600006A
:10A688007CA6000084A6000084A600008CA600001A
:10A698008CA6000094A6000094A600009CA60000CA
:10A6A8009CA60000A4A60000A4A60000ACA600007A
:10A6B800ACA60000B4A60000B4A60000BCA600002A
:10A6C800BCA60000C4A60000C4A60000CCA60000DA
:10A6D800CCA60000D4A60000D4A60000DCA600008A
:10A6E800DCA60000E4A60000E4A60000ECA600003A
:10A6F800ECA60000F4A60000F4A60000FCA60000EA
:10A70800FCA6000004A7000004A700000CA7000096
:10A718000CA7000014A7000014A700001CA7000045
:10A728001CA7000024A7000024A700002CA70000F5
:10A738002CA7000034A7000034A700003CA70000A5
:10A748003CA7000044A7000044A700004CA7000055
:10A758004CA7000054A7000054A700005CA7000005
:10A768005CA7000064A7000064A700006CA70000B5
:10A778006CA7000074A7000074A700007CA7000065
:10A788007CA7000084A7000084A700008CA7000015
:10A798008CA7000094A7000094A700009CA70000C5
:10A7A8009CA70000A4A70000A4A70000ACA7000075
:10A7B800ACA70000B4A70000B4A70000BCA7000025
:10A7C800BCA70000C4A70000C4A70000CCA70000D5
:10A7D800CCA70000D4A70000D4A70000DCA7000085
:0CA7E800DCA70000E4A70000E4A70000CC
:04000003000080B1C8
:00000001FF
