:020000040800F2
:1000000000500020ED00000835010008350100080F
:100010003501000835010008350100080000000026
:100020000000000000000000000000003501000892
:100030003501000800000000350100083501000806
:1000400035010008350100083501000835010008B8
:1000500035010008350100083501000835010008A8
:100060003501000835010008350100083501000898
:100070003501000835010008350100083501000888
:100080003501000835010008350100083501000878
:100090003501000835010008350100083501000868
:1000A0003501000835010008350100083501000858
:1000B0003501000835010008350100083501000848
:1000C0003501000835010008350100083501000838
:1000D0003501000835010008350100083501000828
:0C00E0003501000835010008350100085A
:1000EC00002103E00B4B5B58435004310A480B4B87
:1000FC0042189A42F6D30A4A02E0002342F8043B23
:10010C00084B9A42F9D300F010F800F00FF800F009
:10011C003FF87047C80100080000002000000020D4
:10012C000000002000000020FEE770477047000030
:10013C00074A936943F010039361064B5A6822F403
:10014C0070025A605A6842F480125A60704700BFBD
:10015C00001002400010014082B000230193019B6B
:10016C00984213D900220092009BB3F57A7F07D2F4
:10017C0000BF009B01330093009BB3F57A7FF7D34C
:10018C00019B01330193019B8342ECD302B0704776
:10019C00F8B5FFF7CDFF0024074E4FF40055274666
:1001AC0005E0756101244FF4FA70FFF7D5FF002CC0
:0C01BC00F7D035613C46F6E7001001402A
:04000005080000ED02
:00000001FF
